:06080000020889020A490A
:01080B0032BA
:0108130032B2
:03081B00020B00CD
:0108230032A2
:03082B000215C7EC
:010833003292
:01083B00328A
:010843003282
:01084B00327A
:010853003272
:01085B00326A
:010863003262
:01086B00325A
:03087300020A9ED8
:03087B00020A2C42
:0C08E20075260E7527A575285A02087EA1
:03087E00024C9297
:2008EE00AE82AF837C007D00C3EC9EED64808FF063F08095F050217A007B00E5E930E40151
:20090E00220ABA00010BC3EA94D0EB6480948740EA0CBC00D30D80D022AE82AF837C007D3D
:20092E0000C3EC9EED64808FF063F08095F0501B7AC27B01EA24FFF8EB34FFF9880289035F
:20094E00E84970F00CBC00D90D80D622E58290F0A3F0E075F014A4FEAFF07C007D00C3EC16
:20096E009EED64808FF063F08095F050070CBC00ED0D80EA2253BEFBE5BE30E6FB75C6E99A
:20098E00E5C630E6FB74B855C64401F5C6E5C620E6FB43BE0422AE82AF8374F05FC4540F27
:2009AE00F582C007C00612144A1229B0D006D007740F5FF582C007C00612144A1229B0D00C
:2009CE000674F05EFCE4CCC4540F6CCC540FCC6CCC8C82C00612144A1229B0D006D00753A0
:2009EE00060F8E8212144A0229B0AF8274F05FC4540FF582C00712144A1229B0D007740F6B
:200A0E005FF58212144A0229B07F00EF2434F582E434F0F583E4F00FBF300040EE22C0E028
:200A2E00C082C083859A9A858D8D538AEFC2EB90F6ECE4F0D083D082D0E032C0E0C082C0E3
:200A4E0083C007C0D075D00090DF3BE0FFBF0D028005BF1330801874D1252540020525E513
:200A6E00252434F582E434F0F583E5D9F0801674D1252540020525E5252434F582E434F0D4
:200A8E00F583E0F5D9D0D0D007D083D082D0E032C0E0C082C083C007C006C005C004C0D059
:200AAE0075D000C2EA90F094E0FEA3E0FFAC247D00C3EC9EED9F500C90F094E4F0A3F05373
:200ACE009AF7801D90F09474012EF0E43FA3F0EE247CF582EF34F0F583E0F5F9E5F830E131
:200AEE00FBD0D0D004D005D006D007D083D082D0E032C0E0C082C083C007C006C0D075D0E9
:200B0E0000C28F90F096E0FEA3E0FF90F09674012EF0E43FA3F0EE2464F582EF34F0F58329
:200B2E00E5F9F090F096E0FEA3E0FFC374179EE49F500790F096E4F0A3F090F6CF7401F066
:200B4E00D0D0D006D007D083D082D0E032C2EA53F8FD90F0947401F0E4A3F090F07CE0F5FE
:200B6E00F9D2AF439A082290F096E4F0A3F0C28F53F8FB43F840D2AFD2AB2275CBDCC2D881
:200B8E0030D8FD75CB0075250075E10390DF3BE0FFBF13F890DF3BE0FFBF01F875E90022FB
:200BAE00AF83E58290F0A7F0EFA3F0905A08E493FE740193FF74122EFEE43FFF8E638F64CF
:200BCE0075658075661075670090F0A975F0001251A475B3057F00EF24A9F582E434F0F575
:200BEE0083E0F5B10FBF100040EDE5B330E3FB7F00EF24B9F582E434F0F583EFF00FBF102E
:200C0E000040EE75B3077F00EF24B9F582E434F0F583E0F5B10FBF100040EDE5B330E3FBF0
:200C2E0090F0A6E0600575B301800375B30390F0A7E0FEA3E0FF7D00ED2EF582E43FF58333
:200C4E00E0F5B10DBD100040EF8D07BF28005004000F80F790F0A4E0FEA3E0FF7D00ED2E86
:200C6E00F582E43FF583E5B2F00DBD100040EFE5B330E3FB22905A08E493FE740193FF741A
:200C8E00112EF582E43FF583E493FFBF31047582012275820022AD82AE83AFF0C007C006CC
:200CAE00C005120A17D005D006D007E5306004AC30801B8D828E838FF0C007C006C00512B9
:200CCE0055D4AA82AB83D005D006D0078A04E52D452E6003020D84EC24F650027C098D632B
:200CEE008E648F658C6675670090F0C975F000C0041251A4D0048C03BB0A0050128B020B97
:200D0E00EA24C9F582E434F0F583742DF080E975632675640075654075660375670090F0D2
:200D2E003575F0001251A475630C75645A75658075660175670090F03875F0001251A47542
:200D4E00632975640075654075660275670090F03975F0001251A47563C97564F0756500E4
:200D6E0075660975670090F03B75F0001251A490F044E4F0806DEC24F250027C0D8D638E9E
:200D8E00648F658C6675670090F0C975F000C0041251A4D0048C07BF0E0050128F060FEE7E
:200DAE0024C9F582E434F0F583742DF080E975632675640075654075660375670090F035E7
:200DCE0075F0001251A47563C97564F075650075660D75670090F03875F0001251A490F0ED
:200DEE0044E4F0120C83E582603490F0A474D9F074F0A3F090F0A67401F090F034120BAECF
:200E0E007563D97564F075650075661075670090F03675F0001251A490F0357412F0E52F48
:200E2E00700690F6EDE0F52F7F008F060FC3EE952F500FC007120B899000051208EED007DF
:200E4E0080E8020A17AF83E58290F0E9F0EFA3F090F0EBE4F0A3F090F0E9E0FEA3E0FF7D6D
:200E6E0000ED2EF582E43FF583E0FC604190F0EBE0F563A3E0F56490000AC007C006C0054F
:200E8E00C00412530BAA82AB83D004D005D006D0078C017C00E92AFAEC3BFBEA24D0FAEB65
:200EAE0034FFFB90F0EBEAF0EBA3F00D80B390F0EBE0FEA3E08E82F58322905A08E493FE16
:200ECE00740193FFC007C006120983D006D00775E10490DF027414F090DF037404F090DF99
:200EEE00047445F090DF05E4F0740B2EF582E43FF583E49390F0EDF090F0EDC007C0061250
:200F0E000E53AC82D006D00790DF06ECF090DF07740CF090DF08E4F090DF0B743BF090DF7D
:200F2E000A7431F090DF097423F0740A2EF582E43FF583E493FDBD311290DF0B7462F09003
:200F4E00DF0A74A7F090DF097410F0BD331290DF0B746AF090DF0A7465F090DF097421F01A
:200F6E00BD341290DF0B7476F090DF0A7462F090DF097421F0BD351290DF0B7413F090DF6C
:200F8E000A74BBF090DF097422F0BD361290DF0B7489F090DF0A741DF090DF09740CF0903E
:200FAE00DF0C742DF090DF0D743BF090DF0E7413F090DF0F7422F090DF1074F8F090DF1139
:200FCE007462F090DF137430F090DF1403F090DF15741DF090DF1614F090DF1774C7F090E2
:200FEE00DF18E4F090DF1974B0F090DF1A74B6F090DF1B7410F090DF1C74EAF090DF1D7402
:20100E002AF090DF1EE4F090DF1F741FF090DF237488F090DF247431F090DF257409F0741B
:20102E00222EF582E43FF583E49390F0EDF090F0ED120E53AE82AF8390DF2E74C2F0BE01A8
:20104E0009BF000690DF2E74C2F0BE0209BF000690DF2E74CBF0BE0309BF000690DF2E74F7
:20106E0055F0BE0409BF000690DF2E7433F075E900752500C289D2A875E10490DF3BE0FFB9
:20108E00BF01F822E5AE20E7FB75AB11E5232523F5AD905A08E493FE740193C313CE13CEBC
:0F10AE00FF8FAD8EAC43AE0100E5AE20E7FB2215
:080881000043AE02000210C0AA
:2010BD00020882228582358583367C007D00EC24EFF582ED34F0F58374FFF00CBC00010DBA
:2010DD00C3EC94FFED6480948340E3905A08E493FC740193FD8C378D387A007B00EA24EFC2
:2010FD00F8EB34F0F9EA2537F582EB3538F583E49388828983F074012AFCE43BFDEC24EF13
:20111D00F582ED34F0F58374FFF08C028D03C3EA9428EB6480948040C47C007D00AA347B8F
:20113D0000C3EC9AED64808BF063F08095F050348C028D03E5352AFAE5363BFBEA24EFFA7D
:20115D00EB34F0FBEC2531F8ED3532F9AF33888289838FF01256AFF88A828B83F00CBC0089
:20117D00BC0D80B91210927EEF7FF08F0690F09BEEF07EEF7FF090F09CEEF090F09D74DFEC
:20119D00F090F09E74AFF090F09FE4F0E0FF43070490F09FEFF090F0A0E4F090F0A1741258
:2011BD00F090F0A27442F07E9B7FF08F068ED57E9B7FF07F008ED4E5AE20E7FB75AB11901B
:2011DD005A08E493FE740193C313CE13CEFF8FAD8EAC43D6011210BDE5D130E0FBE5AE5478
:2011FD00C0600280F853D1FE22905A08E493FE740193FF8E828F83E493FD8D298E828F8318
:20121D00A3E493FF8F2A752B0022905A08E493FE740193FF74272EF582E43FF583E493FF5E
:20123D00BF310790F6F07401F02290F6F0E4F022AF83E58290F4EFF0EFA3F090F4F17401C9
:20125D00F090F4EFE0FEA3E0FF7D00ED2EFBE43FFC8B828C83E0FA60328B828C83EAF08BF3
:20127D00828C83E0FCBA30004005EC24C65019ED2EF582E43FF583E0FCBC2E02800ABC2D0E
:20129D0002800590F4F1E4F00D80C090F4F1E0FF7E008F828E8322905A08E493FE7401938F
:2012BD00FF75630E75645A75658075660A75670090F4F275F000C007C0061251A4D006D0C9
:2012DD0007740C2EFEE43FFF8E638F6475658075660575670090F4F275F0001251A490F4BC
:2012FD00F7E4F090F4F2120E53AE82AF838E048F058D048C278E2822905A08E493FE74019D
:20131D0093FF8E828F83A3A3A3E49390F4FCF08E828F83A3A3A3A3E49390F4FDF08E828FF7
:20133D0083A3A3A3A3A3E49390F4FEF090F4FFE4F090F4FC12124DE5828583F045F0700A9F
:20135D0090F6E6743CF0E4A3F02290F4FC120E53E5828583F090F6E6F0E5F0A3F022905AA9
:20137D0008E493FE740193FF74072EF582E43FF583E493FFBF530475820122BF420475826F
:20139D00022275820022905A08E493FE740193FF74232EF582E43FF583E493FFBF540475AC
:2013BD0082012275820022905A08E493FE740193FF74062EF582E43FF583E493FDBD7E0279
:2013DD00801353C9FC74FB55C94408F5C99003E81208EE80F874082EF582E43FF583E49380
:2013FD00FFBF311275311075325A7533807534019000080210C122905A08E493FE7401934A
:20141D00FF8E828F83A3A3E493F52C74092EF582E43FF583E49390F500F090F501E4F0901D
:20143D00F500120E53AE8290F6EDEEF022AF82BF0A0050088F0674302EF5822274372FF563
:20145D008222AFD5AED475C900C007C006121315E4F52DF52E752F01F530905A1275F080EC
:20147D00120CA4905A1275F080122EC6D006D007A294E433FC7D0090F032ECF0EDA3F085A0
:20149D00F6F685F7F7C2EB538AEFBC0108BD0005758CFF8003758C00439A10438D10D2AFFE
:2014BD0090F6E6E0FCA3E0FD8C638D649007D0C007C006C005C00412530BAA82AB83D0044C
:2014DD00D005D006D007C2C7EC4D602353BEFBE5BE30E5FB74F855C64441F5C6E5C630E6E1
:2014FD00FB43BE0453C67F53A1FE43A110800375A100D2ADD2AF53BEFBE5BE30E5FB74F88D
:20151D0055C64441F5C6E5C630E6FB43BE0443D6817CD07DF68D0490F6DEECF07CD07DF6A9
:20153D0090F6DFECF07CDE7DF68DD57CDE7DF68CD475D60190F6E6E0F5F0A3E045F0602A32
:20155D0074FC55A24402F5A290F6ECE0FDE0600343A204ACA5ECB5A50280FAACA5ECB5A505
:20157D000280FAED60048BA48AA343C70275BE06000000E5BE5403600875D7010043870166
:20159D0000759A0053C7FD8FD58ED475D60153BEFBE5BE30E6FB53C6BFE5C620E6FB43BEB1
:2015BD0004E5BE30E5FB53C67F22C0E0C082C083C2C753A1FE53BEFCC2ADD2AF90F6EE7418
:2015DD0001F090F6ECF0D083D082D0E032AF82BF20004005EF24855005EF60027F208F82D1
:2015FD002285826385836490F503E0FCA3E0FD1CBCFF011D7A007B00C3EA9CEB64808DF073
:20161D0063F08095F0503FEA2563F8EB3564F988828983E0FF8F65756600EC2563F567ED5E
:20163D003564F568856782856883E088828983F0AF65856782856883EFF00ABA00010B1C16
:20165D00BCFF011D80B222AF83E58290F509F0EFA3F090F505E0FEA3E0FF7C007D0090F53F
:20167D0009E0FAA3E0FB4A605E8C008D010CBC00010DE82EF539E93FF53A75630A7564009E
:20169D008A828B83C007C006C005C004C003C0021256D6A882D002D00374302885398285DA
:2016BD003A83F075630A7564008A828B8312574CE5828583F0D004D005D006D00790F50993
:2016DD00F0E5F0A3F0809790F507E0FAA3E0FBC3EC9AED64808BF063F08095F050168C00BB
:2016FD008D010CBC00010DE82EF582E93FF5837430F080DB90F503ECF0EDA3F08E828F8347
:20171D00C005C0041215FED004D00590F505E0FEA3E0FFEC2EF582ED3FF583E4F08C828DC7
:20173D008322AF82AE83ADF0FC90F50DEFF0EEA3F0EDA3F0ECA3F090F50BE0FEA3E0FFC348
:20175D0074049E74808FF063F08095F0500990F50B7404F0E4A3F090F511E4F0A3F090F541
:20177D000DE0FCA3E0FDA3E0FEA3E0FFC007C006C005C004E4C0E0C0E0C0E0C0E08C828DCB
:20179D00838EF0EF1252DBAB82E58124FCF581D004D005D006D007EB601990F50DECF0EDBF
:2017BD00A3F0EEA3F0EFB2E7A3F090F5117401F0E4A3F090F50DE0FCA3E0FDA3E0FEA3E079
:2017DD00FF8C828D838EF0C007C006C005C00412551385823D85833E125547A882A983AA89
:2017FD00F0FBD004D005D006D007C000C001C002C0038C828D838EF0EF124ECD85823F8502
:20181D00834085F041F542E58124FCF58190F505E53BF0E53CA3F090F507E4F0A3F0853DFC
:20183D0082853E83121664AA82AB8390F50BE0F8A3E0F948700122EA253BFAEB353CFB8AF9
:20185D00828B83742EF088828983C003C002C001C00012554785820C85830D85F00EF50FD0
:20187D0090000075F0207441125328AC82AD83AEF0FFC004C005C006C007853F8285408355
:20189D008541F0E542124ED8AC82AD83AEF0FFE58124FCF5818C828D838EF0EF125513AE6C
:2018BD0082AF83D000D001D002D00390F50574012AF0E43BA3F090F507E8F0E9A3F08E8256
:2018DD008F8312166490F511E0F5F0A3E045F06047AD3BAE3C7F008D828E838FF01255D468
:2018FD00AE82AF83EF20E72774012EFCE43FFDEC253BFCED353CFDEE253BF582EF353CF5D0
:20191D0083E0FB8C828D83F01EBEFF011F80D5853B82853C83742DF022E58290F513F09036
:20193D00F6E9E02401F0E0FFBF0A02800790F513E0700122123163125554AC82AD83AEF01D
:20195D00FFE4C0E0C0E07420C0E07441C0E08C828D838EF0EF1255ECAC82AD83AEF0FFE500
:20197D008124FCF581E4F563F564F565756609F56790F51475F000C007C006C005C00412DE
:20199D0051A475631B75645A75658075660475670090F51475F0001251A4D004D005D00676
:2019BD00D00774042414F53BE434F5F53C90F50B7402F0E4A3F08C828D838EF0EF12173FB5
:2019DD0090F51C742DF090F6E9E4F090F51475F000122EC6E4F52DF52EF52FF53090F51466
:2019FD0075F000020CA4E58290F522F085F3F385FDFD85F3F343FD0253BEFBE5BE30E6FB5E
:201A1D0053C6B8E5C620E6FB43BE04D28190000A1208EEE4F563F564F56575660EF567906E
:201A3D00F52575F0001251A490F522E0FFE4BF060104FF7E00EF602843F24075B5B67563AE
:201A5D002075645A75658075660575670090F52575F000C007C0061251A4D006D00780260A
:201A7D0043F28075B5B775632675645A75658075660575670090F52575F000C007C00612BE
:201A9D0051A4D006D00774CF55B44433F5B443B443E5B430E7FB74F055BAFD7C00AABB8A5B
:201ABD0003E4FA4205EB420490F523EDF0ECA3F00EBE0A005003021A52C005C004120983EE
:201ADD00D004D005C3ED94FFEC947F400790F523E4F0A3F090F523E0FEA3E0FF8E828F837E
:201AFD00125554AC82AD83AEF0FFC007C006C005C004E4C0E0C0E07480C0E0743FC0E08C66
:201B1D00828D838EF0EF12520AAB82E58124FCF581D004D005D006D007EB601E7404242592
:201B3D00F53BE434F5F53C90F50BE4F0A3F08C828D838EF0EF12173F800B90F5297430F063
:201B5D0090F52AE4F0E4F52DF52EF52FF53090F52575F000120CA490F52575F000122EC68D
:201B7D00C28175820002193685F3F343FD02D2819000011208EE7F0043F20174CF55B444DF
:201B9D0033F5B475B5B043B443E5B430E7FB74F055BAFD7E00ABBB8B04E4FB4205EC420650
:201BBD000FBF030040D2C28190F53375F000C006C0051255D4858266858367E4F563F5648E
:201BDD00F56590F53375F0001251A4D005D0068D048E0790F5057433F074F5A3F090F507F0
:201BFD00E4F0A3F08C828F83C006C005121664D005D006ED24CEF582EE34FFF583125554D5
:201C1D00AC82AD83AEF0FFC004C005C006C00790E00075F0F97446124ECDAC82AD83AEF0E5
:201C3D00FFE58124FCF581C004C005C006C00790E00075F0F974461255ECAC82AD83AEF09F
:201C5D00FFE58124FCF581E4C0E0C0E07480C0E0743FC0E08C828D838EF0EF124ECDAC827B
:201C7D00AD83AEF0FFE58124FCF581C004C005C006C00790000075F07A74441255ECAC82C0
:201C9D00AD83AEF0FFE58124FCF581E4C0E07440C0E0741CC0E07446C0E08C828D838EF060
:201CBD00EF1255ECAC82AD83AEF0FFE58124FCF5818C828D838EF0EF125024A882A983AABD
:201CDD00F0FBE4C0E07490C0E07478C0E07445C0E0888289838AF0EB1255ECAC82AD83AE15
:201CFD00F0FFE58124FCF581740FC0E074CFC0E0745BC0E0743BC0E08C828D838EF0EF127B
:201D1D005471A882A983AAF0FBE58124FCF581C000C001C002C00390000075F080743F12BA
:201D3D0055ECA882A983AAF0FBE58124FCF5817433C0E07493C0E07488C0E07443C0E088F5
:201D5D008289838AF0EB124ECDAC82AD83AEF0FFE58124FCF581E4F563F564F56575660E77
:201D7D00F56790F53375F000C007C006C005C0041251A475632C75645A75658075660475CB
:201D9D00670090F53375F0001251A4D004D005D006D00774042433F53BE434F5F53C90F583
:201DBD000B7402F0E4A3F08C828D838EF0EF12173F90F53712124DE5828583F045F0601BEF
:201DDD0090F53375F000122EC6E4F52DF52EF52FF53090F53375F000120CA4758200021960
:201DFD0036AF83E58290F541F0EFA3F090F541E0FEA3E0FF74012EFCE43FFD8C018D027B43
:201E1D000075633175645A7565807566028B6789828A838BF0C007C006C005C004124FA98D
:201E3D00E5828583F0D004D005D006D00745F070198E828F83E0FBBB410643FD10D284224B
:201E5D00BB420643FD20D28522227B0075633475645A7565807566028B678C828D838BF0EB
:201E7D00C007C006124FA9E5828583F0D006D00745F070188E828F83E0FFBF410643FD108E
:201E9D00C28422BF420643FD20C2852222E58290F544F085F4F443FEE090F544E0FFBF4175
:201EBD0002800ABF4202800EBF431D801290F543E024FF92952290F543E024FF929622907E
:201EDD00F543E0FF24FF929722AF83E58290F545F0EFA3F090F545E0FEA3E0FF74032EFEBE
:201EFD00E43FFF8E638F6475650075661475670090F54775F00012523A75633775645A7594
:201F1D00658075660575670090F54775F000124FA9E5828583F045F06003021FA390F54C3C
:201F3D00E090F547F090F54DE090F548F090F54EE090F549F090F54AE4F090F54712124D28
:201F5D00E5828583F045F0603D90F547120E53AE82E583FF20E72F90F547120E53AE82AF09
:201F7D0083C3741E9E74808FF063F08095F040167531477532F5753300753403900003122B
:201F9D0010C17582002275633D75645A75658075660575670090F54775F000124FA9E5823A
:201FBD008583F045F0702F7402B52C0280057407B52C047582012290F6E87401F090F6EE99
:201FDD00F075314375325A753380F5349000071210C17582002275634575645A7565807507
:201FFD00660375670090F54775F000124FA9E5828583F045F0700A1238731237B775820082
:20201D002275634975645A75658075660575670090F54775F000124FA9E5828583F045F048
:20203D00703F90F54CE090F547F090F548E4F090F54712124DE5828583F045F060237531CC
:20205D00477532F57533007534019000091210C190F547120E53AE8290F6EDEEF0758200FB
:20207D002275634F75645A75658075660575670090F54775F000124FA9E5828583F045F0E2
:20209D00706090F54CE090F547F090F548E4F090F54712124DE5828583F045F0604490F54B
:2020BD0047120E53AE82AF83C3EE9401EF64809480402F90F547120E53AE82AF83C374046F
:2020DD009E74808FF063F08095F040167531477532F57533007534019000221210C17582BD
:2020FD00002275635575645A75658075660475670090F54775F000124FA9E5828583F0454D
:20211D00F0701B90F6E8E4F075310E75325A7533807534019000071210C1758200227563F3
:20213D005A75645A75658075660475670090F54775F000124FA9E5828583F045F0703290DF
:20215D00F54CE4F090F54B12124DE5828583F045F0601E90F54BE090F547F07531477532FA
:20217D00F575330075340190000B1210C17582002275635F75645A756580756604756700E5
:20219D0090F54775F000124FA9E5828583F045F0706090F54CE4F090F54B12124DE58285B1
:2021BD0083F045F0604C90F54B120E53AE82AF83C3EE9401EF64809480403790F54B120E75
:2021DD0053AE82AF83C374069E74808FF063F08095F0401E90F54BE090F547F0753147755B
:2021FD0032F575330075340190000A1210C17582002275636475645A75658075660475672F
:20221D000090F54775F000124FA9E5828583F045F0704290F550E4F090F54B12124DE582CF
:20223D008583F045F0602E75634B7564F575650075660575670090F54775F00012523A75FB
:20225D0031477532F575330075340590000C1210C17582002275636975645A7565807566B6
:20227D000475670090F54775F000124FA9E5828583F045F0703190F55BE4F075634B756441
:20229D00F5F565756610F56790F54775F00012523A7531477532F575330075341090001230
:2022BD001210C17582002275636E75645A75658075660475670090F54775F000124FA9E557
:2022DD00828583F045F0704890F54CE4F090F54BE0FFBF310890F6EB7401F0800590F6EB62
:2022FD00E4F075634B7564F575650075660175670090F54775F00012523A7531477532F512
:20231D007533007534019000111210C17582002275637375645A756580756604756700908E
:20233D00F54775F000124FA9E5828583F045F0704690F54DE4F090F54BE0FFBF41004033C3
:20235D00EF24BC402E90F54C12124DE5828583F045F0601F90F54BE0FF90F54CC007120E67
:20237D0053AD82D00790F543EDF08F82121EAA758200227582012275637875645A75658047
:20239D0075660375670090F54775F000124FA9E5828583F045F0702890F54BE4F090F54A8C
:2023BD00E0FFBF4108758206121A03800FBF4208758207121A03800475820122758203226E
:2023DD0075637C75645A75658075660475670090F54775F000124FA9E5828583F045F07005
:2023FD004D90F54CE0FFBF2D0790F54CE4F0800590F54DE4F090F54B120E53AE82AF83BE9D
:20241D0001004026EE249C402190F547EEF07531477532F57533007534019000021210C12F
:20243D0090F09A7401F0758200227582012275638175645A75658075660575670090F5475F
:20245D0075F000124FA9E5828583F045F0700F123307E582700475820322758201227563A8
:20247D008775645A75658075660575670090F54775F000124FA9E5828583F045F070071217
:20249D004A717582032275638D75645A75658075660475670090F54775F000124FA9E582F9
:2024BD008583F045F07007121B857582032275639275645A75658075660675670090F5470D
:2024DD0075F000124FA9E5828583F045F070071246907582032275639975645A75658075EE
:2024FD00660575670090F54775F000124FA9E5828583F045F0700712436075820322756389
:20251D009F75645A75658075660575670090F54775F000124FA9E5828583F045F07007125E
:20253D0040ED758203227563A575645A75658075660675670090F54775F000124FA9E582CC
:20255D008583F045F0700A7582011231C2758203227563AC75645A756580756605756700D1
:20257D0090F54775F000124FA9E5828583F045F0700F90F54FE4F090F54C121DFE75820053
:20259D00227563B275645A75658075660775670090F54775F000124FA9E5828583F045F058
:2025BD00703775634E7564F5F56575660275670090F54775F0001251A490F549E4F07531D0
:2025DD00477532F5F5337534029000001210C190F09A7401F0758200227563BA75645A75E3
:2025FD00658075660575670090F54775F000124FA9E5828583F045F070387563C075645ADB
:20261D0075658075660975670090F54775F00012523A905AC075F080122EC6E4F52DF52EF6
:20263D00752F01F53090F54775F000120CA4758203227563CA75645A7565807566057567B9
:20265D000090F54775F000124FA9E5828583F045F070387563D275645A7565807566097556
:20267D00670090F54775F00012523A905AD275F080122EC6E4F52DF52E752F01F53090F5E8
:20269D004775F000120CA4758203227563DC75645A75658075660575670090F54775F00065
:2026BD00124FA9E5828583F045F070307402B52C0280057407B52C047582012290F6E87485
:2026DD0002F090F6EE14F07531E275325A753380F5349000071210C1758203227563E475D2
:2026FD00645A75658075660575670090F54775F000124FA9E5828583F045F0701B90F6F019
:20271D007401F07531EA75325A753380F5349000271210C1758200227563EC75645A7565D1
:20273D008075660675670090F54775F000124FA9E5828583F045F0701B90F6F0E4F07531F5
:20275D001075325A7533807534019000271210C1758200227563F375645A7565807566068D
:20277D0075670090F54775F000124FA9E5828583F045F0702690F6EA7401F0E4F52DF52EFD
:20279D00752F01F53090F54775F000120CA4905AFA75F080122EC67582032275631B7564A8
:2027BD005A75658075660475670090F54775F000124FA9E5828583F045F0700A758201123A
:2027DD0019367582032275630475645B75658075660275670090F54775F000124FA9E582AC
:2027FD008583F045F0703A7563497564F5F56575660475670090F54775F0001251A490F524
:20281D004BE4F07531477532F5F5337534049000231210C11213A3E58290F6EFF0758200FD
:20283D002275630775645B75658075660175670090F54775F000124FA9E5828583F045F065
:20285D00702D1238737F017409C39FFEEF2447F582E434F5F583E0F5547555008E82C00784
:20287D00123853D0070FBF090040DC7582002275820122AD82AE83AFF07402B52C6C7B0064
:20289D007C0090F094E0F5F0A3E045F0602AC3EB94F4EC94015021900001C007C006C00579
:2028BD00C004C0031208EED003D004D005D006D0070BBB00CD0C80CA7B007C00EB2DF8EC67
:2028DD003EF98F02888289838AF01256AFFA6013EB247CF582EC34F0F583EAF00BBB00DCF9
:2028FD000C80D9EB14F524020B5B22122890905B0975F0800228907402B52C028001227EDD
:20291D00007F0090F094E0F5F0A3E045F0601EC3EE94F4EF94015015900001C007C00612BA
:20293D0008EED006D0070EBE00D90F80D690F031E0FF90F030E0FEC39FFE24E850027E175C
:20295D00EF2400FFE434F0FD8F638D647565008E6675670090F07C75F000C0061251A4D0B8
:20297D0006EE04247CF582E434F0F583E4F08E24C006120B5BD00690F031E02EF0E0FF90F3
:20299D00F030E0FEC3EF9E400990F030E4F090F031F022AF827D007E0090F094E0F5F0A394
:2029BD00E045F06022C3ED94F4EE94015019900001C007C006C0051208EED005D006D007D2
:2029DD000DBD00D50E80D290F000EFF090F0307401F090F031E4F0022914905A08E493FE3C
:2029FD00740193FF74232EF582E43FF583E493FDBD540280012274242EFBE43FFC8B828C39
:202A1D0083E493FABA2D02803FBD2002803A7D8090F031E02400F9E434F0FA09B900010AEA
:202A3D0089638A647565007566027567008B828C838DF0C007C006124FA9E5828583F0D0AD
:202A5D0006D00745F060012290F561E4F090F031E02400FDE434F0FC74032DFDE43CFC7B1C
:202A7D000075630C75645B7565807566038B678D828C838BF0C007C006124FA9E582858358
:202A9D00F0D006D00745F0700690F5617405F090F031E02400FDE434F0FC74032DFDE43C0B
:202ABD00FC7B0075631075645B7565807566038B678D828C838BF0C007C006124FA9E582A5
:202ADD008583F0D006D00745F0704C90F031E024062400F582E434F0F583E0FD90F55FF0BC
:202AFD008D5475550075820812385390F031E024072400F582E434F0F583E0FD90F55FF0EA
:202B1D008D5475550075820712385375540075550075820602385390F031E02400FDE4346B
:202B3D00F0FC74032DFDE43CFC7B0075632C75645A7565807566048B678D828C838BF0C099
:202B5D0007C006124FA9E5828583F0D006D00745F0607890F031E02400FDE434F0FC74033B
:202B7D002DFDE43CFC7B0075631475645B7565807566048B678D828C838BF0C007C00612F4
:202B9D004FA9E5828583F0D006D00745F0603C90F031E02400FDE434F0FC74032DFDE43CCC
:202BBD00FC7B0075631975645B7565807566048B678D828C838BF0C007C006124FA9E5829A
:202BDD008583F0D006D00745F0700690F5617406F090F561E0FD700122C007C006C005127E
:202BFD003873D005D006D0077C017B0190F560E4F090F031E02D2B2400F582E434F0F583D5
:202C1D00E090F55FF090F031E02D042B2400F582E434F0F583E0FABA2E0690F5607401F0C9
:202C3D0090F55FE0FABA2E0280277406C39CF990F560E0F5558A548982C007C006C005C04C
:202C5D0004C003123853D003D004D005D006D0070C0BBB060040957554007555007582088B
:202C7D00C007C006123853D006D007755400755500758207C007C006123853D006D0077583
:202C9D005400755500758206C007C006123853D006D00774262EF582E43FF583E493F5548B
:202CBD00755500758201023853E5E930E4012290F030E070012290F031E02400FEE434F0C5
:202CDD00FF8E828F83E0FDBD61028003022DD20EBE00010F7D007563298D647565407566F5
:202CFD00028D678E828F838DF0124FA9E5828583F045F06003022DB290000A1208EE7F001F
:202D1D00EF2462FDE434F5FE90F031E02F2400F582E434F0F583E0F582C007C006C0051283
:202D3D0015EAAC82D005D006D0078D828E83ECF00FBF0C0040CA90F56EE4F090F562121E09
:202D5D00E6E582FF7017752D01F52E752F01F53090F56275F000C007120CA4D007BF011374
:202D7D00E4F52DF52E752F01F530905B1E75F080120CA490F031E0240CF0E0FF90F030E073
:202D9D00FEC3EF9E5003022CC690F030E4F090F031F0022CC67402B52C06122914022CC6C8
:202DBD0090F6EFE060031229F790F030E4F090F031F0022CC6122914022CC6E5E920E403DB
:202DDD00022E7775E90090DF3CE0FF20E703022E7790F6EBE060487563367564F0756500EC
:202DFD0075661075670090F58175F0001251A490F0A4746FF074F5A3F090F0A6E4F090F50B
:202E1D0081120BAE90F57FE4F075636F7564F5F565756610F56790F03475F0001251A4900B
:202E3D00F036E0FFB5273390F037E0FFB5282B90F030E02400FFE434F0FE7D007563387508
:202E5D0064F08D6575660C8D678F828E838DF01251A490F030E0FF240CF090DF3BE0FFBF97
:202E7D000D0122752500120A1775E102C2867E007F0090DF3BE0FDBD0D02801EC3EE941451
:202E9D00EF94005015900001C007C0061208EED006D0070EBE00DB0F80D8C3EE9414EF9470
:202EBD00004005D286020EC82285824385834485F0457402B52C028001227B007C00C3EB6D
:202EDD009409EC9400501CEB2543FAEC3544FEAF458A828E838FF01256AF60070BBB00DEEA
:202EFD000C80DB90F593EBF07E007F0090F094E0F5F0A3E045F0601EC3EE94F4EF94015042
:202F1D0015900001C007C0061208EED006D0070EBE00D90F80D67E007F00EE2446F8762DB2
:202F3D000EBE00010FC3EE940CEF940040EC754661756329756400756540756602756700CF
:202F5D0090004775F0401251A485436385446485456590F593E0FF8F667567009000497534
:202F7D00F0401251A47E007F00EE247CF582EF34F0F583EE2446F9E7FDF00EBE00010FC3AC
:202F9D00EE940CEF940040E175240C020B5B90000A1208EE90F096E0F5F0A3E045F070012F
:202FBD00227F0090F096E0FDA3E0FE8F037C00C3EB9DEC9E501CEF2494FDE434F5FEEF24CE
:202FDD0064F582E434F0F583E0FC8D828E83F00F80D17E00EE2464F582E434F0F583E4F06E
:202FFD000EBE170040EE90F096E4F0A3F090F6CFF0EF2494F582E434F5F583E4F075632270
:20301D0075645B756580756603F56790F59475F000124FA9E5828583F045F07009905B2625
:20303D0075F080022EC675633075645B75658075660575670090F59475F000124FA9E58257
:20305D008583F045F0703B75313675325B7533807534289000001210C190F5947401F0753E
:20307D0031947532F5753300F5349000021210C11213C4905B2675F080122EC690F6EA74C3
:20309D0001F075635F75645B75658075660275670090F59475F000124FA9E5828583F04578
:2030BD00F0702B75310E75325A7533807534019000071210C17531EA75325A753380753405
:2030DD00019000081210C190F6EA7401F02290F594E0FEBE61028001227563297564007556
:2030FD00654075660275670090F59575F000124FA9E5828583F045F060237402B52C1575D4
:20311D002D01752E00752F0175300090F59475F000020CA4905B6275F080022EC690F59406
:20313D00121EE6AF8290F5A0E4F0EF700C90F597F5F0C007122EC6D007BF0109905B6C758D
:20315D00F080022EC62275B53F75B473E5B430E7FBAEBA7F00ACBB8C05E44206ED4207EFEA
:20317D00C4CEC4540F6ECE540FCE6ECEFF8E828F83125554AC82AD83AEF0FFC004C005C0B0
:20319D0006C0079012C775F096743C124ED8AC82AD83AEF0FFE58124FCF5818C828D838E56
:2031BD00F0EF025560AF82A294E433FE90F032E0FCA3E0FD8E027B00EAB5040AEBB505066F
:2031DD00EF700302325290F032EAF0EBA3F0EE702E90F6EEE06014E4F52DF52EF52FF5301A
:2031FD00905B7675F080120CA48040E4F52DF52EF52FF530905B7E75F080120CA4802C902C
:20321D00F6EEE06014E4F52DF52EF52FF530905B8775F080120CA48012E4F52DF52EF52FEF
:20323D00F530905B9075F080120CA47582001219367582012275820022E58290F5ACF0E037
:20325D00FFE4F563F564F565F566A293E433FA8F01B50129A863A964AA65AE660563E4B517
:20327D00630C0564B564070565B565020566C3E8941EE99400EA9400EE940040CD856382F7
:20329D0022AF82AE83ADF0FC90F5ADEFF0EEA3F0EDA3F0ECA3F090F5ADE0FCA3E0FDA3E052
:2032BD00FEA3E0FFC007C006C005C004E4C0E0C0E0C0E0C0E08C828D838EF0EF1252DBAB82
:2032DD0082E58124FCF581D004D005D006D007EB60108C008D018E02EFB2E7888289838AD0
:2032FD00F0228C828D838EF0EF22D2819000011208EE75C90085F4F485FEFE85F6F69000D9
:20331D001412092790F5B5E4F090F5B4F090F5B3F090F5B2F090F5B1F0D2939000FA120984
:20333D002743FE08C293900014120927C2AFD29375822812095A85FEFE75820A12095A75EF
:20335D008200123256E5827023D2AFE4F52DF52EF52FF530905B9A75F080120CA4905BA38D
:20337D0075F080122EC6C28175820022758201123256E5827023D2AFE4F52DF52EF52FF59A
:20339D0030905B9A75F080120CA4905BA375F080122EC6C281758200227F02EF24B6FDE4B4
:2033BD0034F5FE758200C007C006C005123256AC82D005D006D0078D828E83ECF0EF042423
:2033DD00B6FDE434F5FE758201C007C006C005123256AC82D005D006D0078D828E83ECF082
:2033FD000F0FBF500040B4D2AF90F5B67405F090F5B77401F07F00EF2FFE24B6F582E434C5
:20341D00F5F583E0FDEE0424B6F582E434F5F583E0FEED6003EE700475820122EFC42354A9
:20343D001F24B1FBE434F5FC8B828C83E025E0FA8B828C83F0C3ED9E500F8B828C83E0FEC9
:20345D004306018B828C83EEF00FBF280040A890F5B5E0FF90F5B1E0FE7D0090F5B2E07BF1
:20347D00002EFEEB3DFD90F5B3E07B002EFEEB3DFD90F5B4E07B002EFEEB3DE4FDFCEFB591
:20349D000606ECB50502800302362690F5B3E0FF747F5FF5821256CBAC82AD83AEF0FFC0AC
:2034BD0004C005C006C00790000075F0807443124ED8AC82AD83AEF0FFE58124FCF58190AE
:2034DD00F5B4E0FB7A008B828A83C007C006C005C004125547A882A983AAF0FBD004D0055F
:2034FD00D006D007C000C001C002C0038C828D838EF0EF125471AC82AD83AEF0FFE5812415
:20351D00FCF581C004C005C006C00790CCCD75F0CC743D124ED8AC82AD83AEF0FFE581243E
:20353D00FCF58190F606ECF0EDA3F0EEA3F0EFA3F090F5B3E0FB30E71090F606ECF0EDA3DF
:20355D00F0EEA3F0EFB2E7A3F090F606E0FCA3E0FDA3E0FEA3E0FF90F60AECF0EDA3F0EEFD
:20357D00A3F0EFA3F090F5B1E0F5821256CBAC82AD83AEF0FFC004C005C006C007900000B8
:20359D0075F0807443124ED8AC82AD83AEF0FFE58124FCF58190F5B2E0FB7A008B828A839D
:2035BD00C007C006C005C004125547A882A983AAF0FBD004D005D006D007C000C001C002A6
:2035DD00C0038C828D838EF0EF125471AC82AD83AEF0FFE58124FCF581C004C005C006C0A3
:2035FD000790CCCD75F0CC743D124ED8AC82AD83AEF0FFE58124FCF58190F616ECF0EDA365
:20361D00F0EEA3F0EFA3F08021E4F52DF52EF52FF530905BAC75F080120CA4905BAC75F04D
:20363D0080122EC6C28175820022C281E4F563F564F56575660EF56790F62275F0001251A4
:20365D00A475631475645B75658075660475670090F62275F0001251A490F60AE0FCA3E071
:20367D00FDA3E0FEA3E0FF74042422F53BE434F6F53C90F50B7402F0E4A3F08C828D838EE7
:20369D00F0EF12173F9000051208EE90F62275F000122EC6E4F52DF52EF52FF53090F622FC
:2036BD0075F000120CA49000051208EEE4F563F564F56575660EF56790F62275F000125185
:2036DD00A475631075645B75658075660375670090F62275F0001251A490F616E0FCA3E0EA
:2036FD00FDA3E0FEA3E0FF74032422F53BE434F6F53C90F50B7402F0E4A3F08C828D838E68
:20371D00F0EF12173F90F62275F000122EC6E4F52DF52EF52FF53090F62275F000120CA4F1
:20373D0075820012193675820022AF827E08EE14F5F005F07401800225E0D5F0FBFDC29558
:20375D0075823CC007C006C00512095AD005D006D007ED5F6012D29775823CC007C00612D7
:20377D00095AD006D0078010C29775823CC007C00612095AD006D007D295DEB222AF82D235
:20379D00968F82123747855382123747C296D2962275530075820C02379A75530175820F9C
:2037BD0002379A7F007553008F82C00712379AD0070FBF080040EE2275530075820F023713
:2037DD009AAF82740F5FF55375820A02379AAF827E00E56360027E01BF2300400BEF24D318
:2037FD004006740D2FFF7E017D00ED75F002A4FBACF0249CF582EC3459F583E493FA603201
:20381D00EFB5022BEE6016EB249CF9EC3459FA89828A83A3E493FE4306808E8222EB249C69
:20383D00FBEC3459FC8B828C83A3E493F582220D80B875820022AF82855563855482C0073E
:20385D001237EB858253D0078F8202379A75530175820C02379A43FE2043FE4043FE80754B
:20387D00530775820B12379A75530075820912379A12386A1237D51237C075820F0237DE49
:20389D00D28285FDFD22D28385FDFD22C28222C2832243FD04C28222A282E433F58222A233
:2038BD0083E433F5822243FD08C28322E58224FF928222D28243FD0422D28343FD0822C20E
:2038DD008222C28322A282E433F58222A283E433F582221238D00238D61238D075820112C9
:2038FD00095A1238D675820112095A1238DC75820A12095A1238DF75820A02095A1238DF67
:20391D0075820112095A1238DC75820112095A1238D675820A12095A1238D075820A0209CE
:20393D005AE58290F630F07F007E80E0FDED5E7011C007C006C0051238DCD005D006D007E3
:20395D00800FC007C006C0051238D0D005D006D007758201C007C006C00512095A1238D6EE
:20397D0075820512095A1238DF75820112095AD005D006D007EEC313FE70B2C0071238D0DC
:20399D001238D675821412095A1238E2E582D00760027F01C0071238DF75821412095AD0DE
:2039BD00078F8222E58290F631F0E0FFC0071238E9E582D007701B8F061F90F631EFF0EEC8
:2039DD007004758202227582E8C00712095AD00780DA75820022AE82AF83E4F0C007C00613
:2039FD001238D0D006D0077D8090F632E0FCC007C006C005C0041238D675820112095AD0DF
:203A1D00048C82C0041239C1AB82758203C00312095A1238E2E582D003D004D005D006D093
:203A3D0007600F8E828F83E0FAED42028E828F83EAF0C007C006C005C004C0031238DF7553
:203A5D00820112095AD003D004D005D006D007EDC313FD7099E5567009C0031238DCD003EF
:203A7D008007C0031238D0D003758201C00312095A1238D675820512095A1238DF1238D0EE
:203A9D0075821412095AD0038B82221238A91238AC1238AF1238C312389D0238A312389DED
:203ABD001238A31238A975820A12095A1238AC75820A02095A1238A91238AC1238A375826A
:203ADD000A12095A12389D75820A02095AAF8290F634E4F090F6337480F090F633E0FEEF1B
:203AFD005E7009C0071238A9D0078007C00712389DD007758201C00712095A1238A375821D
:203B1D000512095A1238AC75820112095AD00790F633E0C313F0E0FE70C012389D1238A393
:203B3D0075820112095A1238B5AF82BF010690F6347401F01238AC75821412095A90F634B6
:203B5D00E0F58222AF8290F636E4F0C00712389DD00790F6357480F0C0071238A37582013E
:203B7D0012095A75820312095A1238B5AE82D007BE010C90F635E0FE90F636E0FD4EF0C043
:203B9D00071238AC75820112095AD00790F635E0C313F0E0FE70C18F821238C97582011229
:203BBD00095A1238A375820512095A1238AC12389D75821412095A90F636E0F58222AF8363
:203BDD00E58290F639F0EFA3F090F63BE4F090F639E0F563A3E0F56490F637E0FD7C00C3EF
:203BFD00EC9D504AEC2563F582E43564F583E0FB90F63BE0FAEB6AF07B0890F63BE0FA309C
:203C1D00E720C005EA2AF9905A0AE493F8740193FD7F00E96200EF620590F63BE8F0D005B8
:203C3D008007EA2AFA90F63BF0DBCF0C80B190F63BE0FF90F638E0FEEFB5060280047582D7
:203C5D00042275820022AF82C007123ABA758280123AEAAE82D00790F63EEEF0BF00028073
:203C7D0005BF012880147582E5C006123AEAAF82D00690F63EEF4EF080127582E3C0061292
:203C9D003AEAAF82D00690F63EEF4EF0123ABA758281123AEAAF8290F63EE04FF01238A336
:203CBD007E007F007582E8C007C00612095A1238BCAD82D006D007BD0102800E0EBE00010C
:203CDD000FC3EE94E8EF940340DA1238BCE582700990F63EE0FF74024FF0758200123B6108
:203CFD00AF8290F63CEFF0758200123B61AF8290F63DEFF0AD57AE5890F63CE0FBE4FCFADC
:203D1D00EF4204EA42038D828E83ECF0EBA3F0758201123B61AF8290F6377402F090F638F0
:203D3D00EFF090F63C123BDBAF8290F63EE04FF0123AD290F63EE0F58222AF82C007123AEA
:203D5D00BA758280123AEAAE82D00790F641EEF0BF00028005BF012880147582F5C00612AD
:203D7D003AEAAF82D00690F641EF4EF080127582F3C006123AEAAF82D00690F641EF4EF094
:203D9D007E007F00C007C006123ABA75821012095AD006D0078E048F050EBE00010FC3EC9C
:203DBD009414ED94005015758281C007C006123AEAAD82D006D007BD010280C8C3EE9414E0
:203DDD00EF9400400990F641E0FF74024FF0758200123B61AF8290F63FEFF0758200123BE1
:203DFD0061AF8290F640EFF0758201123B61AF82AD59AE5A90F640E0FC90F63FE0FA7B00CE
:203E1D008C017C00E94203EC42028D828E83EBF0EAA3F090F6377402F090F638EFF090F660
:203E3D003F123BDBAF8290F641E04FF0123AD290F641E0F58222123ABA758280123AEAAF27
:203E5D00827582FEC007123AEAAE82D007EE4207C007123AD275829812095AD0078F8222A0
:203E7D00AF83E58290F642F0EFA3F090F642E0FEA3E0FF90F64274FC5EF0EFA3F090F6425A
:203E9D00E0FEA3E0FF8E828F83125554AC82AD83AEF0FFC004C005C006C00790000075F0C2
:203EBD00FA743A124ED8AC82AD83AEF0FFE58124FCF581E4C0E0C0E074C0C0E0C0E08C8268
:203EDD008D838EF0EF125471AC82AD83AEF0FFE58124FCF5818C828D838EF0EF22AF83E5B6
:203EFD008290F644F0EFA3F090F644E0FEA3E0FF90F64474FC5EF0EFA3F090F644E0FEA368
:203F1D00E0FF8E828F83125554AC82AD83AEF0FFC004C005C006C00790B85275F02F743BDA
:203F3D00124ED8AC82AD83AEF0FFE58124FCF5817466C0E0C0E0743BC0E074C2C0E08C82E8
:203F5D008D838EF0EF125471AC82AD83AEF0FFE58124FCF5818C828D838EF0EF22AE82AF6D
:203F7D0083C007C006123ABA758280123AEAAD827582E7C005123AEAAC82D005EC4205C063
:203F9D0005123ABA758281123AEAAC82D005EC4205758200C005123B61AC82D005D006D002
:203FBD00078E828F83ECF0758201C007C006C005123B61AC82D005D006D00790F637740105
:203FDD00F090F638ECF08E828F83C005123BDBAF82D005EF4205C005123AD2D0058D822206
:203FFD00AE82AF83C007C006123ABA758280123AEAAD827582E6C005123AEAAC82D005D028
:20401D0006D007EC42058E828F83E0F582C005123AEAAF82D005EF4205C005123AD2D0050B
:20403D008D8222AE82AF83C007C0061238F675828012393EAD827582E7C00512393EAC827A
:20405D00D005EC4205C0051238F675828112393EAC82D005D006D007EC420575560190F600
:20407D00327432F08E828F83C0051239F3AF82D005EF4205C00512391AD0058D8222AE829A
:20409D00AF83C007C0061238F675828012393EAD827582E6C00512393EAC82D005EC420574
:2040BD00758280C00512393EAC82D005D006D007EC42058E828F83E0F582C00512393EAFC5
:2040DD0082D005EF4205C00512391AD0058D822290F647E4F090F648F0A3F090F64AF0A3B1
:2040FD00F090F64CF0A3F0A3F0A3F090F650F0A3F0A3F0A3F01238F075820F12095A1238BA
:20411D00F675828012393EAF827582FEC00712393EAE82D007EE4207C0071238F67582805A
:20413D0012393EAE82D007EE42077582E7C00712393EAE82D007EE4207C0071238F6758231
:20415D008112393EAE82D007EE420775560190F6327432F090F647C0071239F3AE82D00707
:20417D0090F646EE4FF090F647E0FFBF0202800690F6467401F075820F12095A90F662128E
:20419D004040AF8290F646E04FF090F66212409BAF8290F646E0FE4FF0E0FFE07017755765
:2041BD00487558F6F582C007123C63AE82D00790F646EE4FF090F646E0FFE0701875594ABD
:2041DD00755AF6758201C007123D57AE82D00790F646EE4FF090F646E0FF702890F64AE0A5
:2041FD00FDA3E0FE8D828E83C007123EFAAB82AC83ADF0FED00790F650EBF0ECA3F0EDA365
:20421D00F0EEA3F0EF702890F648E0FDA3E0FE8D828E83C007123E7DAB82AC83ADF0FED0E2
:20423D000790F64CEBF0ECA3F0EDA3F0EEA3F0EF601FE4F52DF52E752F01F530905BA375C9
:20425D00F080120CA4905BA375F080122EC6024356E4F563F564F56575660EF56790F654ED
:20427D0075F0001251A475631075645B75658075660375670090F65475F0001251A490F6B9
:20429D004CE0FCA3E0FDA3E0FEA3E0FF74032454F53BE434F6F53C90F50B7402F0E4A3F08B
:2042BD008C828D838EF0EF12173F90F65475F000122EC6E4F52DF52EF52FF53090F65475E8
:2042DD00F000120CA4E4F563F564F56575660EF56790F65475F0001251A475632C75645A5E
:2042FD0075658075660475670090F65475F0001251A490F650E0FCA3E0FDA3E0FEA3E0FF11
:20431D0074042454F53BE434F6F53C90F50B7402F0E4A3F08C828D838EF0EF12173F90F63B
:20433D005475F000122EC6E4F52DF52EF52FF53090F65475F000120CA47582001219367561
:20435D00820022123AA875822312095A123E53AF8290F675C007123F7AAE82D007EE42077A
:20437D0090F675E0FE747E5EF090F675C007123FFDAE82D007EE42077557637558F67582D0
:20439D0000C007123C63AE82D007EE4207755965755AF6758201C007123D57AE82D007EEF8
:2043BD00420790F665E0FDA3E0FE8D828E83C007123EFAAB82AC83ADF0FE90F663E0F9A3C1
:2043DD00E0FA89828A83C006C005C004C003123E7D85825B85835C85F05DF55ED003D0045D
:2043FD00D005D006D007EF60030244D8C006C005C004C003E4C0E0C0E0C0E07443C0E08BF6
:20441D00828C838DF0EE12520AAF82E58124FCF581D003D004D005D006EF60030244D8C066
:20443D0006C005C004C003E4C0E0C0E074ECC0E07442C0E0855B82855C83855DF0E55E12A6
:20445D00520AAF82E58124FCF581D003D004D005D006EF7066C006C005C004C003E4C0E009
:20447D00C0E0C0E074C3C0E08B828C838DF0EE1252DBAF82E58124FCF581D003D004D00599
:20449D00D006EF7036C006C005C004C003E4C0E0C0E074ECC0E074C2C0E0855B82855C83C2
:2044BD00855DF0E55E1252DBAF82E58124FCF581D003D004D005D006EF601EE4F52DF52E76
:2044DD00F52FF530905BA375F080120CA4905BA375F080122EC60245D6E4F563F564F565BC
:2044FD0075660EF56790F66775F000C006C005C004C0031251A475631075645B7565807504
:20451D00660375670090F66775F0001251A474032467F53BE434F6F53C90F50B7402F0E495
:20453D00A3F0855B82855C83855DF0E55E12173F90F66775F000122EC6E4F52DF52EF52FE3
:20455D00F53090F66775F000120CA4E4F563F564F56575660EF56790F66775F0001251A478
:20457D0075632C75645A75658075660475670090F66775F0001251A4D003D004D005D00627
:20459D0074042467F53BE434F6F53C90F50B7402F0E4A3F08B828C838DF0EE12173F90F6AA
:2045BD006775F000122EC6E4F52DF52EF52FF53090F66775F000120CA475820012193675B9
:2045DD008200221238F67582ED02393EE58290F676F0E0F58212393EAF8290F677EFF0EF4E
:2045FD00702E7F328F061FEE601DC0071245E0AE82D00790F677EEF0EE600C75820CC0072C
:20461D0012095AD00780DDEF700690F6777402F090F677E0F58222E58290F678F090F67942
:20463D007493F090F678E0600890F6797490F0802A1238F67582EC12393E7582F212393E65
:20465D0075820412393E1238F67582EC12393E7582F512393E7582A012393E1238F6758241
:20467D00EC12393E7582F412393E90F679E0F58202393ED2819000011208EE1238F01238F5
:20469D00F675823212095A7582001246349000051208EEE4F563F564F565756628F567906B
:2046BD00F67C75F0001251A41238F67582EC12393E7582881245E97F00BF1700501FEF24BD
:2046DD007CFDE434F6FE75560090F6327432F08D828E83C0071239F3D0070F80DCEF247C29
:2046FD00FDE434F6FE75560190F6327432F08D828E83C0071239F3D0070FC0071238F675F3
:20471D0082EC12393E7582A11245E9D007EF247CFDE434F6FE75560190F6327432F08D8215
:20473D008E83C0071239F3D00790F67AEF04F01238F67582EC12393E7582E11245E97F0049
:20475D0090F67AE0FEBF06005024EE247CFCE434F6FD75560090F6327432F08C828D83C099
:20477D0007C0061239F3D006D0070F0E80D7EE247CFDE434F6FF75560190F6327432F08DB1
:20479D00828F83C0061239F3D00690F67AEE04F01238F67582EC12393E7582F71245E99042
:2047BD00F67AE0FF7E00BE07005024EF247CFCE434F6FD75560090F6327432F08C828D8309
:2047DD00C007C0061239F3D006D0070F0E80D7EF247CFFE434F6FE75560190F6327432F01C
:2047FD008F828E831239F37582011246341238F67582EC12393E7582E012393E7582B612ED
:20481D00393E12391AC28190F67BE4F07F00E4F563F564F56575660EF56790F6A475F00045
:20483D00C0071251A4D007EF704E7563B475645B75658075660575670090F6A475F000C0E4
:20485D00071251A4D00790F67BE0FE7D0074052D24A4FBE434F6FCED2E247CF582E434F647
:20487D00F583E0FA8B828C83F00DBD040040DE90F67B74042EF0802E90F67BE0FE7D00ED43
:20489D0024A4FBE434F6FCED2E247CF582E434F6F583E0FA8B828C83F00DBD090040E0900D
:2048BD00F67B74092EF090F6ADE4F090F6A475F000C007122EC6E4F52DF52EF52F75300971
:2048DD0090F6A475F000120CA4D007740F55C944A0F5C9740F55C94450F5C90FBF0500503A
:2048FD000302482B740F55C944A0F5C9740F55C94450F5C9758200021936855F6375640085
:20491D0012574CAE82AF837C007D00C3EC9EED64808FF063F08095F050070CBC00ED0D80DC
:20493D00EA2243FE04C292755F039001F4124917D29285FEFE755F0390001E124917A292D7
:20495D00E433FF755F039001D6C007124917D0077E008F828E8322E582FF30E015C2AF43D5
:20497D00FE04C29275FE00D2AF755F0990003C024917C2AF43FE04C292755F0990003C1200
:20499D00491775FE00D2AF22AF827E01EF5E60047D0180027D008D82C007C006124974D06B
:2049BD0006D007EE2EFE70E422AF827E007D00C3ED9F5039C2AF43FE04C29275FE00A292B8
:2049DD00D2AFA292E433FC8DF005F0EC800225E0D5F0FB2EFE755F09900023C007C006C044
:2049FD0005124917D005D006D0070D80C28E82227582080249C6AF827E00C3EE9F5030EEA3
:204A1D002560FBE43561FCAD62C007C006C005C004C003124A0DAA82D003D004D005D006B4
:204A3D00D0078B828C838DF0EA1252C00E80CB22AD82AE83AFF0758233C007C006C00512D3
:204A5D0049A5D005D006D0078D608E618F62758208024A13D2819000011208EE85F4F485C0
:204A7D00FEFE85F6F685F7F712493F12493FAE82AF83EE6003024C0690F6B2E4F090F6C9A3
:204A9D00F0A3F074AAA3F07442A3F090F6B2E0FFBF0A03024B907F00C00712493F7582CC19
:204ABD001249A57582441249A5755F0990006412491712493F7582CC1249A57582BE1249EE
:204ADD00A5D0070FBF020040CF7560C17561F6756200758208124A1390F6C1E0FF90F6C249
:204AFD00E0FDE4FEFCEF2EF582EC3DF583125547AC82AD83AEF0FFC004C005C006C007905A
:204B1D00000075F080743D124ED8AC82AD83AEF0FFE58124FCF58190F6C9ECF0EDA3F0EE1A
:204B3D00A3F0EFA3F0E4C0E0C0E074AAC0E07442C0E08C828D838EF0EF1251F9E58124FC9E
:204B5D00F581E58224FF9200400990F6B2740AF0024AA890F6B2E02401F0740F55C944A011
:204B7D00F5C9740F55C94450F5C99000321208EE024AA8E4F563F564F56575660EF56790E5
:204B9D00F6B375F0001251A475631975645B75658075660475670090F6B375F0001251A404
:204BBD0090F6C9E0FCA3E0FDA3E0FEA3E0FF740424B3F53BE434F6F53C90F50B7402F0E492
:204BDD00A3F08C828D838EF0EF12173F90F6B375F000122EC6E4F52DF52EF52FF53090F696
:204BFD00B375F000120CA4801BE4F52DF52EF52FF530905BA375F080120CA4905BA375F089
:204C1D0080122EC6C281758200021936E52C24F55003024C84E52C240B83F582E52C240F99
:204C3D0083F583E4738458845D62676F84777C814C4C4C4C4C4C4C4C4C4C4C121B8580277B
:204C5D001233078022124A71801D758206121A038015758207121A03800D12436080081215
:204C7D00469080031240ED90F6F0E0FF60067582010231C222C2EC9000FA1208EE120983D7
:204C9D0085F3F343FD0285F4F485FEFE85F6F643F64085F7F743FD40C2861213C412141414
:204CBD007402B52C02800B90F6CD7401F0E4A3F0800790F6CDE4F0A3F07407B52C02803C69
:204CDD00752C0274FE55F14401F5F143F33043FD1075FA8374E055FC4409F5FC43F8805398
:204CFD00FBFE43FB0253FBFB53FBF753FBEF53FBDF53FBBF53FCDF120B75800685F3F34365
:204D1D00FD3043C91075220075210043A88090000A1208EEC281D28690F032A294E433F069
:204D3D00E4A3F0120EC81212061213151212B412122712137BE58290F6E8F01213A3E582DC
:204D5D0090F6EFF0120A17120EC8120C83E58290F6EBF0905BBA75F080122EC6E4F52DF5C2
:204D7D002E752F05F530905BBA75F080120CA490F6EC7401F090F6EEF090F030E4F090F08F
:204D9D0031F053C9FC74FB55C94408F5C990F09AE4F090F6EAE06003024EBA90F09AE06021
:204DBD00119000011208EE12120612141490F09AE4F090F6E8E0FFE0605990F6CDE0F5F0DC
:204DDD00A3E045F0704D90F6EEE0FEBE0116BF0103124C2990F6E8E0FFBF020E75820112AA
:204DFD0031C280067582001231C212137BE58290F6E8F090F6EEE4F012145F120EC8E4F52E
:204E1D002DF52E752F01F530905BC475F080120CA4801F90F6EEE4F0122DD8122CC674028D
:204E3D00B52C0990F6CFE06003122FAB7582001231C290F6CDE0FEA3E0FFC3745A9EE49F86
:204E5D0050211214147402B52C02800B75CB0075F800859A9AC2AB90F6CDE4F0A3F090F693
:204E7D00EE04F030D82490F6CDE0FEA3E0FF90F6CDE0F5F0A3E045F0601090F6CD74012E1E
:204E9D00F0E43FA3F075CBDCC2D8740F55C944A0F5C9740F55C94450F5C9024DAF53C9FC4D
:104EBD0074FB55C94408F5C99003E81208EE80F853
:20599C004177421F434E443D454F4647475E483749304A3C4C0E4E764F7E50675205535BD5
:2059BC00540F553E59275B4E5D785F086177621F630D643D654F6647675E681769106A3C42
:2059DC006C0E6E156F7E70677205735B740F751C79272D002000307E3130326D33793433E3
:2059FC00355B365F3770387F397B000000043101610020003000534C454550494E470042D4
:205A1C0041545400414E41413000414E41423000544D5041004F4E004F4600494E54564C0D
:205A3C00004359434C450053004D4158004E4F4D534700504F5745520057414B45004154D3
:205A5C00434E0041544348004154494400415445410041544545004750494F00414E41001E
:205A7C00545950450054454D50420054454D50430054454D5000424D453238300053485444
:205A9C00323100485455323100425554544F4E0052454C4159004348444556494400484556
:205ABC004C4C4F0048454C4C4F2D2D2D2D0056455253494F4E00564552372E322D2D2D008A
:205ADC00534C4545500042005242534F4E0031005242534F4646005245424F4F5400524516
:205AFC00424F4F542D2D2D004D58004D000D0A00544D500048554D00544D504200544D50C7
:205B1C004300455252002B2B2B004F4B2D2D2D2D2D2D2D0052455345540030313230303041
:205B3C007E3030323330323332303530202020202020202020202020202020203120202019
:205B5C0020200058580045525249442D2D2D2D004552522D2D2D2D2D2D0053544154454F48
:205B7C004E00425554544F4E4F4E0053544154454F464600425554544F4E4F4646004E4F92
:205B9C005345534E4F52004E4F53454E534F52004241445245414400424D502D2D005354D5
:0E5BBC0041525445442D2D004157414B4500A8
:205C42000106060606060604070707070707040000DFBE000720423C0000000000010100A7
:025C6200000040
:0B4ECD00A8811818C6B2E7C602547195
:204ED800124F7BBC000302558CEF60FA30D502B2D1E583B4FF030255A2E582B4FF030255DE
:204EF800A2258340072482400B02558C24831450030255A2F582EA8DF0A4A8F0EA8EF0A408
:204F180028F8E435F0F9EB8DF0A428E935F0F9E433CA8FF0A429F9EA35F0FAEBF88EF0A4E8
:204F380029F9EA35F0FAE433FBEC8DF0A429F9EA35F0FAE43BFBE88FF0A42AFAEB35F0FB90
:204F5800E433CCFD8EF0A42AFAEB35F0FBE43CFCED8FF0A42BFBEC35F0FC20E703125171CB
:034F780002556B74
:204F7B00AA82AB83A2F73392D1F5826002D2F7ACF0E58124F9F8E6FD08E6FE0886F008E699
:0E4F9B00A2F73392D5F5836002D2F7AFF02271
:204FA900AD82AE83AFF0E5664567700490000022AA63AB64AC65A866A96718B8FF0119E8B0
:204FC9004960368D828E838FF01256AFF5686029C000C0018A828B838CF01256AFF9B56809
:204FE900028006D001D0008010D001D0000DBD00010E0ABA00C40B80C18D828E838FF012F0
:1B50090056AFFD7F008A828B838CF01256AFFA7E00EDC39AF582EF9EF58322FE
:205024001252AE30D1061255AF0250ECBC0008D2D11255A20250ECC082740379001250EDD0
:20504400E4F508F509F50AF50B905BCAF88C078B068A0589F0E8125130E925F0EA3DEB3ECC
:20506400EC3F54E07028E925F0F9EA3DFAEB3EFBEC3FFCE4932508F5087401933509F509ED
:20508400740293350AF50A740393350BF50BA3A3A3A308B81EB7AC0BAB0AAA09A908758293
:2050A40081D2D1125171D0E0B47E05125583803840062482C2D58005F4247FD2D5F81255C6
:2050C400BA741888F0A4F9AAF074B188F0A4FBACF0747288F0A42AFAE5F03BFBE43CFC753D
:0950E400828612517112547422EB
:0608B800E478FFF6D8FD14
:2050ED006040F82582500274FFF582E824F8501ECCCBCAF9E4CC24F85014CBCAF9E4CB24CB
:20510D00F8500BCAF9E4CA24F8500379002224086010F8C3EC13FCEB13FBEA13FAE913F97D
:03512D00D8F12294
:2051300024F850228DF0AD06AE077F0024F850168DF0AD067E0024F8500C8DF07D0024F8AF
:20515000500475F0002224086016C000F8C3EF13FFEE13FEED13FDE5F013F5F0D8EFD000E6
:01517000221C
:205BCA00FF422E16F691F90CF2FD2307EEE0C4030CA3F001D814FC00A3027F0055C03F00FC
:205BEA000BF01F0001FC0F0000FF0700C0FF0300F0FF0100FCFF0000FF7F00000040000004
:205C0A0000200000001000000008000000040000000200000001000080000000400000007B
:185C2A0020000000100000000800000004000000020000000100000023
:205171007804EC7011E58224F8500AF582E4C9CACBFCD8EF22EC7820058220E713D582013D
:1351910022C3E933F9EA33FAEB33FBEC33FCD8EA1582224B
:2051A400AD82AE83AFF08D688E698F6A85636B85646C85656DA866A9678803890418B8FF03
:2051C4000119EB4C6025856B82856C83856DF01256AFFCA385826B85836C8D828E838FF0F2
:1551E400EC1252C0A3AD82AE8380CE856882856983856AF02274
:200896007922E94400601B7A01905C4278CF7593F6E493F2A308B800020593D9F4DAF2759D
:0208B60093FFAE
:1151F900FFA88118181254E81254CAE96401F58222E8
:20520A00FFA88118181254E8D2D133E6400730E70B7582012220E70675820022C2D1125480
:10522A00CAE97003F5822230D101B3E433F5822250
:20523A00AD82AE83AFF08D688E698F6AA866A96785636B85646C85656DE849602F856B8221
:20525A00856C83856DF01256AFF56E601F18B8FF0119056BE4B56B02056C8D828E838FF076
:20527A00E56E1252C0A3AD82AE8380CD8803890418B8FF0119EB4C60118D828E838FF0E421
:14529A001252C0A3AD82AE8380E2856882856983856AF02296
:1252AE00AA82AB83A2F73392D1F5826002D2F7ACF02205
:1B52C00020F71130F6138883A88220F509F6A8837583002280FEF280F5F022ED
:2052DB00FFA88118181254E8D2D133E6400730E70B7582002220E70675820122C2D11254AF
:1052FB00CAE97003F5822220D101B3E433F582228F
:1D530B00E5828563F0A4C582C0F08564F0A4D0F025F0C5838563F0A42583F5832253
:20532800AC82AD83AEF0FF850CF0E50D42F0E50E42F0E50F547F45F0700990000075F080B6
:20534800743F22C007C006C005C004E4C0E0C0E07480C0E0743FC0E0850C82850D83850E94
:20536800F0E50F1251F9AB82E58124FCF581D004D005D006D007EB60088C828D838EF0EF88
:2053880022C007C006C005C004E4C0E0C0E0C0E0C0E08C828D838EF0EF12520AE58124FCEA
:2053A800F581D004D005D006D007E58224FF92014007900000E4F5F0228C828D838EF0EFAF
:2053C800125024AC82AD83AEF0FFC00CC00DC00EC00F8C828D838EF0EF124ED8AC82AD83ED
:1353E800AEF0FFE58124FCF5818C828D838EF0EF0257E352
:2053FB00E563456460467A01E56325E0F563E564334012F564E5829563E583956440030AA7
:20541B0080E6C3E56413F564E56313F563C3E5829563F5F0E58395644005F58385F082C301
:0D543B00E56413F564E56313F563DAE1221F
:2008BE007800E84400600A79007593F0E4F309D8FC78CFE84406600C790790F000E4F0A38B
:0408DE00D8FCD9FA6F
:205448007A10E4FBFCE58225E0F582E58333F583EB33FBEC33FCEB9563F5F0EC95644006C2
:09546800FCABF0438201DADD2205
:20547100124F7B7900E583B58202800D50031255BAE583C395821250EDE5D0C465D020E1E4
:2054910017EA2DFAEB3EFBEC3FFC500974011250EDEC4480FC02556BC3EA9DFAEB9EFBEC49
:1954B1009FFC500FC3E499F9E49AFAE49BFBE49CFCB2D112517102556B28
:2054CA007901AA82E68F82B5821318E6B5F00E18E6B5830918E68A82B58202790022B480D9
:2054EA000FE5F0700AE5837006E58270027F00EFB6801518B6001018B6000B18B600060841
:09550A00080876002208080822B6
:20551300125784700AE582458345F0700122E430D112F4700BE5F0F47006E58330E70122D3
:1455330090800022700AE5F07006E58320E70122907FFF22AB
:0D554700AC83AB827A007900748E02571598
:0C555400E4AC83AB82FAF9748E0257427B
:0B5560007F8E12596FF58385F08222C8
:20556B00B98003EA13B34010EA2401FAE43BFBE43CFC50047C800582BC000EBB000BBA0084
:20558B0008E4F5F0F583F58222A2D1E582138CF092F78B838A8222E4F583F58275F080F444
:0F55AB00A2D11322E4F583F58275F0C0747F223C
:1A55BA00E582C583F582A2D133A2D592D11392D5ECCFFCEBCEFBEACDFA2279
:1855D400AA82AB831256AF6003A380F8C3E5829AF582E5839BF58322F8
:2055EC00124F7B30D502B2D1BF0009BC00030255AF0255A2BC000302558CE583B4FF0BE506
:20560C0082B4FF030255AF02558CE582B4FF030255A2C395835007247F400B02558C2480A0
:20562C001450030255A2F582C3ED9AEE9BEF9C40111582C3EA33F9EB33FAEC33FBE433FC23
:20564C008005E4CCCBCAF9C08275F019C3E99DEA9EEB9FEC9400D5F002802D400EE99DF99F
:20566C00EA9EFAEB9FFBEC9400FCC3B3E833F8E58233F582E58333F583C3E933F9EA33FAFF
:20568C00EB33FBEC33FC80C4B3E4F938FAE43582FBE43583FCD082500405827C8012517199
:0356AC0002558321
:0D08890075816E1257DFE582600302087E64
:1C56AF0020F71430F6148883A88220F507E6A88375830022E280F7E49322E0220A
:0B56CB00E4AC82FBFAF974860257423F
:2056D600C2D5E58330E70DD2D5E4C39582F582E49583F583E56430E70BE4C39563F563E4FB
:1656F6009564F5641253FB30D50BE4C39582F582E49583F5832211
:20570C00FCABF0AA83A982749EF582C2D1EC30E716D2D1E9F42401F9EAF43400FAEBF4349C
:0D572C0000FBECF43400FC12517102556BCF
:13573900FCABF0AA83A982749EC2D1F58212517102556BBC
:20574C00C2D5E58330E70DD2D5E4C39582F582E49583F583E56430E70DB2D5E4C39563F542
:18576C0063E49564F56412544830D50BE4C39582F582E49583F5832203
:205784001252AEC3749E9582403979001250ED30D126E9F42401F582EAF43400F583EBF4BD
:2057A4003400F5F0ECF43400700AE582458345F0700122E430E70F22EC20E71489828A83FC
:1B57C4008BF02230D10AE4F582F583F5F074802274FFF582F583F5F0747F22F8
:0457DF0075820022AD
:2057E300A2E79202C2E7F8A2F7332499400B90000075F080743F02591D751400E58224E878
:20580300E583348DE5F034CEE834C0E8505885821085831185F012F513783BC00078AAC005
:205823000078B8C000783FC000124ED81581158115811581125994E582F5142480500612F3
:2058430055A202591D780079807A317BBF12591E85821085831185F012F513788379807ACA
:205863005E7B3912591EA2F733D2F7A982AA83ABF07C00B47902800F400724871259568095
:2058830006F4247A1250EDE4F510F511F512751320905BCAF8E493F5F0A3E493FDA3E49346
:2058A300FEA3E493FFA3C3E995F0EA9DEB9EEC9F4030C3E995F0F9EA9DFAEB9EFBEC9FFC39
:2058C3008510F0AD11AE12AF13E8125130E51025F0F510E5113DF511E5123EF512E5133FCA
:2058E300F51308B81BAFAC13AB12AA11A910125171747F2514F58212556B30021BC082C08B
:2059030083C0F0C0E090000075F080743F1255EC1581158115811581C2E722C000C001C0D2
:2059230002C0038514821256CB124ED81581158115811581C082C083C0F0C0E08510828550
:2059430011838512F0E5131254711581158115811581226014C000F8C3E933F9EA33FAEBDA
:0A59630033FBEC33FCD8F1D0002236
:20596D007F9E1252AE30D10302558CC3EF9582500974FFF5F0F583F5822279001250ED8928
:07598D00828A838BF0EC22FB
:085994007F8612596FF5822293
:00000001FF
